:020000040000FA
:100000000C9478000C9423060C94FC050C94A0002E
:100010000C94A0000C94A0000C94A0000C94A000E0
:100020000C94A0000C94A0000C94A0000C94A000D0
:100030000C94A0000C94A0000C94A0000C94A000C0
:100040000C94B2050C94A0000C94A0000C94A00099
:100050000C94A0000C94A0000C94A0000C94A000A0
:100060000C944A060C94A000526F7461727920526D
:10007000756C657200206D6D2020202020202020CE
:10008000202020202000526F746172792052756CFC
:100090006572000000000023002600290000000017
:1000A0000800020100000304070000000000000037
:1000B0000000000000250028002B000000000024A4
:1000C0000027002A000404040404040404020202B9
:1000D0000202020303030303030102040810204089
:1000E00080010204081020010204081020006907A2
:1000F00011241FBECFEFD8E0DEBFCDBF11E0A0E0DE
:10010000B1E0EAE2FAE102C005900D92A633B10730
:10011000D9F722E0A6E3B1E001C01D92AC33B207EB
:10012000E1F710E0C8E7D0E004C02197FE010E948B
:100130000D0DC737D107C9F70E94BA070C94130DEC
:100140000C940000CF93DF9390E0FC01E752FF4F47
:1001500024918B539F4FFC0184918823C1F090E040
:10016000880F991FFC01E554FF4FC591D491FC0104
:10017000EF54FF4FA591B4919FB7F8948881E22F77
:10018000E0958E2388838C91E823EC939FBFDF91C9
:10019000CF9108950F931F934091360250913702EB
:1001A000609138027091390280910C0290910D0299
:1001B000A0910E02B0910F028A019B01081B190B3E
:1001C0002A0B3B0BD901C801181619061A061B0683
:1001D0000CF04AC080910C0290910D02A0910E0289
:1001E000B0910F028A019B01081B190B2A0B3B0BD4
:1001F000D901C8014091340250913502052E000CFE
:10020000660B770B84179507A607B70754F1809103
:100210002A0290912B02A0912C02B0912D024091C4
:100220000C0250910D0260910E0270910F02841722
:100230009507A607B7072CF581E080933A02109244
:100240003B0280910C0290910D02A0910E02B091A0
:100250000F028093360290933702A0933802B09336
:1002600039021F910F91089580910C0290910D0217
:10027000A0910E02B0910F02841B950BA60BB70B39
:10028000B9CF40910C0250910D0260910E02709115
:100290000F02481759076A077B079CF610923A022B
:1002A00081E080933B02CDCF833081F028F4813010
:1002B00099F08230A9F008958730A9F08830C9F00C
:1002C0008430B1F4809180008F7D03C080918000E4
:1002D0008F7780938000089584B58F7784BD0895CB
:1002E00084B58F7DFBCF8091B0008F778093B00075
:1002F00008958091B0008F7DF9CFCF93DF93282FA1
:1003000030E0F901E356FF4F8491F901E752FF4FC6
:10031000D491F901EB53FF4FC491CC23A1F081118B
:100320000E945401EC2FF0E0EE0FFF1FED56FF4F3F
:10033000A591B491EC91ED2381E090E009F480E087
:10034000DF91CF91089580E090E0FACF1F93CF9393
:10035000DF93282F30E0F901E356FF4F8491F90134
:10036000E752FF4FD491F901EB53FF4FC491CC23D7
:10037000A9F0162F81110E945401EC2FF0E0EE0F2E
:10038000FF1FEF54FF4FA591B4918FB7F894EC91F4
:10039000111108C0D095DE23DC938FBFDF91CF9180
:1003A0001F910895DE2BF8CF3FB7F8948091080293
:1003B00090910902A0910A02B0910B0226B5A89B68
:1003C00005C02F3F19F00196A11DB11D3FBFBA2FE7
:1003D000A92F982F8827BC01CD01620F711D811DA7
:1003E000911D42E0660F771F881F991F4A95D1F72C
:1003F00008958F929F92AF92BF92CF92DF92EF9229
:10040000FF924B015C010E94D4016B017C010E94B0
:10041000D4016C197D098E099F09683E73408105DE
:100420009105A8F321E0821A9108A108B10888EE8D
:10043000C80E83E0D81EE11CF11C81149104A104B4
:10044000B10429F7FF90EF90DF90CF90BF90AF906D
:100450009F908F900895089508950895AF92BF9248
:10046000CF92DF92EF92FF920F931F93CF93DF9380
:100470006C017B018B01040F151FEB015E01AE18AF
:10048000BF08C017D10759F06991D601ED91FC91D1
:100490000190F081E02DC6010995892B79F7C501FE
:1004A000DF91CF911F910F91FF90EF90DF90CF9050
:1004B000BF90AF90089520919E01260F3327331FE0
:1004C00021323105ECF42091C201FC0190E080E082
:1004D000243069F082E00895A0919E012191AC0141
:1004E00042585E4FA40FB52FB11D2C93019686176D
:1004F00098F380919E01680F60939E0180E00895BB
:1005000081E008951092C20181E08093C4011092AD
:10051000C30161E082E10E94A60161E083E10E94E3
:10052000A601E9EBF0E080818E7F808380818D7F62
:10053000808388E48093B80085E48093BC000895AC
:10054000CF93DF9391E090937D018823B9F0C09120
:10055000B800D091BA008091BC008A7B8093BC0027
:1005600060E082E10E94A60160E083E10E94A601B2
:100570000E948202D093BA00C093B800DF91CF915D
:1005800008950895E091EF018091EE01E81730F4AD
:10059000F0E0E85AFE4F808190E008958FEF9FEFE2
:1005A00008959091EF018091EE012FEF3FEF9817A2
:1005B00048F4E92FF0E0E85AFE4F208130E09F5FD9
:1005C0009093EF01C90108958091EE019091EF01A0
:1005D000891B990B0895CF92DF92EF92FF920F93B0
:1005E0001F93CF93DF937C01CB018A0120915701A8
:1005F000222389F0EB016B01C40ED51ECC15DD055D
:1006000069F06991D701ED91FC910190F081E02DA5
:10061000C7010995F3CF642F0E945B02C801DF91E7
:10062000CF911F910F91FF90EF90DF90CF900895A1
:10063000CF93DF931F92CDB7DEB769832091570127
:100640002223F9F02091EC01203258F021E030E033
:10065000FC013383228390E080E00F90DF91CF9103
:1006600008958091ED01E82FF0E0E95CFE4F99815B
:1006700090838F5F8093ED018093EC0181E090E0A7
:10068000ECCF61E0CE0101960E945B02F7CF809132
:100690001D020E947D0120910002892B71F480913E
:1006A0000C0290910D02A0910E02B0910F02222334
:1006B00071F00196A11DB11D0DC080910C029091A9
:1006C0000D02A0910E02B0910F02222391F3019727
:1006D000A109B10980930C0290930D02A0930E0220
:1006E000B0930F02089580911C020E947D01209119
:1006F0000002892B71F480910C0290910D02A0915F
:100700000E02B0910F02222371F00197A109B109E5
:100710000DC080910C0290910D02A0910E02B0913B
:100720000F02222391F30196A11DB11D80930C02AB
:1007300090930D02A0930E02B0930F020895CF92F2
:10074000DF92EF92FF920F931F93CF93DF93FC0101
:10075000C48121E020935701C09336011092ED012E
:100760001092EC018385682B80E192E00E941803CF
:10077000D091EC01D13208F092C00E94D4016B01FB
:100780007C018091C201811165C082E08093C20129
:1007900081E08093C4018FEF8093C1011092E60144
:1007A000D093E501A7E3B1E0E5ECF1E080E0D813F8
:1007B00085C01092E7018091E701CC0FC82BC09350
:1007C000E7018091C301813009F07CC01092C30120
:1007D0000E94D4016B017C018091E7018093BB00F2
:1007E0008091790190917A01A0917B01B0917C0177
:1007F000892B8A2B8B2B99F00E94D40100917901CF
:1008000010917A0120917B0130917C016C197D0956
:100810008E099F090617170728073907E0F180910D
:10082000BC0083FDD9CF85EC8093BC000E94D4012D
:100830006B017C018091C201823009F445C0809136
:10084000C1018F3F61F18091C101803241F18091FE
:10085000C10125C08091790190917A01A0917B011D
:10086000B0917C01892B8A2B8B2B09F48ACF0E94B3
:10087000D4010091790110917A0120917B0130918E
:100880007C016C197D098E099F0906171707280737
:10089000390708F076CF809178010E94A00210926B
:1008A000ED011092EC0110925701DF91CF911F9151
:1008B0000F91FF90EF90DF90CF9008959D919193CD
:1008C0008F5F75CF85EEB0CF8091790190917A01DD
:1008D000A0917B01B0917C01892B8A2B8B2B09F491
:1008E000A9CF0E94D4010091790110917A01209141
:1008F0007B0130917C016C197D098E099F090617D7
:1009000017072807390708F095CFC5CF0F931F9316
:10091000CF938C01C62F0E949F036C2F6460C80187
:100920000E949F036C2F6B7FC801CF911F910F9185
:100930000C949F030F931F93CF93DF938C01D62FBB
:10094000C42F607F642B0E94860480E1D89FB00191
:1009500011246C2BC801DF91CF911F910F910C9442
:100960008604CF93DF93CDB7DEB728970FB6F89400
:10097000DEBF0FBECDBF98E0E4E0F1E0DE011196EE
:1009800001900D929A95E1F790912702961708F43D
:100990006FEF262F30E0220F331F41E050E04C0F65
:1009A0005D1F240F351FF9016081680F606840E00A
:1009B0008EE192E028960FB6F894DEBF0FBECDBF51
:1009C000DF91CF910C949A0441E00E949A0481E057
:1009D00090E008950F931F93CF93DF938C01D0E0A5
:1009E000C0E0F801EC0FFD1F6491662339F041E08F
:1009F0008EE192E00E949A042196F3CFCE01DF911E
:100A0000CF911F910F91089541E0682F8EE192E000
:100A10000E949A0481E090E00895089590E080E0BB
:100A20000895FC0101900020E9F73197AF01481BC0
:100A3000590BBC018EE192E00C942E028F929F9292
:100A4000AF92BF920F931F93CF93DF93CDB7DEB7D3
:100A5000A1970FB6F894DEBF0FBECDBF19A24230EA
:100A600008F44AE08E010F5D1F4F842E912CB12CAB
:100A7000A12CA50194010E94EB0CE62FB901CA013B
:100A8000EA30F4F4E05DD801EE938D01232B242BA2
:100A9000252B79F790E080E0109719F0CD010E94A6
:100AA0001105A1960FB6F894DEBF0FBECDBFDF9142
:100AB000CF911F910F91BF90AF909F908F9008950D
:100AC000E95CE1CFA0E0B1E083E793E011969C936D
:100AD0008E93E9E6F0E0808183608083E89A87E482
:100AE00093E013969C938E93129780818C60808301
:100AF000E99A089585ED8093BC00809179019091E9
:100B00007A01A0917B01B0917C010796A11DB11DD6
:100B100023E0B695A795979587952A95D1F72091CB
:100B2000BC0024FD03C01092C201089540917901D8
:100B300050917A0160917B0170917C01452B462B8D
:100B4000472B69F30097A105B10541F02AE22A95E8
:100B5000F1F700C00197A109B109E1CF80917801B7
:100B60000C94A0021F920F920FB60F9211242F9394
:100B70003F938F939F93AF93BF9380910402909183
:100B80000502A0910602B09107023091030223E012
:100B9000230F2D3758F50196A11DB11D2093030297
:100BA0008093040290930502A0930602B09307027B
:100BB0008091080290910902A0910A02B0910B0263
:100BC0000196A11DB11D8093080290930902A09384
:100BD0000A02B0930B02BF91AF919F918F913F9109
:100BE0002F910F900FBE0F901F90189526E8230F9E
:100BF0000296A11DB11DD2CF1F920F920FB60F9278
:100C000011242F933F934F935F936F937F938F9311
:100C10009F93AF93BF93EF93FF93E0910201F09105
:100C200003010995FF91EF91BF91AF919F918F9132
:100C30007F916F915F914F913F912F910F900FBED8
:100C40000F901F9018951F920F920FB60F921124BC
:100C50002F933F934F935F936F937F938F939F93C4
:100C6000AF93BF93EF93FF93E0910001F0910101E7
:100C70000995FF91EF91BF91AF919F918F917F91D6
:100C80006F915F914F913F912F910F900FBE0F90F9
:100C90001F9018951F920F920FB60F9211242F9349
:100CA0003F934F935F936F937F938F939F93AF93F4
:100CB000BF93EF93FF938091B900887F803609F44A
:100CC0004AC0F0F5883209F4A7C018F5803109F45C
:100CD0009BC0B8F4882309F4F9C0883009F494C0A3
:100CE000FF91EF91BF91AF919F918F917F916F9104
:100CF0005F914F913F912F910F900FBE0F901F90DA
:100D00001895883109F488C0803251F78093C10169
:100D100014C0803409F49DC040F48033B9F38833A3
:100D2000F9F68093C10185ECB0C0803509F485C027
:100D3000883509F496C0883499F60E947A05D0CF98
:100D4000883909F48CC038F5883729F050F4883692
:100D500011F0803729F683E08093C2011092C00120
:100D600057C0883809F47BC0803919F0803809F001
:100D7000B7CF8091C001803208F071C0E091C0010E
:100D800081E08E0F8093C0018091BB00F0E0E056BF
:100D9000FE4F80833DC0803B39F0E0F4803A09F497
:100DA00079C0883A09F09CCF84E08093C201109208
:100DB0009F0110929E01E091EA01F091EB010995EB
:100DC00080919E0181110FC081E080939E0110925D
:100DD0007E0109C0803C09F4A6CF883C09F4A3CF6A
:100DE000883B09F07DCFE0919F0181E08E0F8093D9
:100DF0009F01F0E0E258FE4F80818093BB0090910C
:100E00009F0180919E0129C08091E7018093BB00E2
:100E100085EC8093BC0064CF9091E6018091E50160
:100E2000981758F5E091E60181E08E0F8093E60176
:100E3000F0E0EB53FE4F8081E9CFE091E60181E0E5
:100E40008E0F8093E6018091BB00F0E0EB53FE4FE4
:100E500080839091E6018091E5019817C8F285E8BA
:100E6000D8CFE091E60181E08E0F8093E60180917A
:100E7000BB00F0E0EB53FE4F80838091C4018111F1
:100E80005CCF81E08093C30184EA8093BC00109220
:100E9000C20126CF85EC8093BC001092C2018091E4
:100EA000C001803230F4E091C001F0E0E056FE4F26
:100EB00010826091C00170E0E091E801F091E901D9
:100EC00080EA91E009951092C0010ACF1092C10109
:100ED00034CFCF93E0E1F2E01382128288EE93E008
:100EE000A0E0B0E084839583A683B78380E191E09E
:100EF00091838083EAE2F2E01082118212821382EF
:100F000080E098E09583848316821782108611868C
:100F100080E890E093878287148615861686178668
:100F2000108A118AC2E0C0931D0283E080931C02E4
:100F300082E00E94A20083E00E94A20061E082E0C1
:100F40000E94A60161E083E00E94A6010E94620562
:100F5000EEE1F2E01382128282E291E091838083DB
:100F60008FE3848380E18087C187128688E083874E
:100F7000CF910895789484B5826084BD84B58160F2
:100F800084BD85B5826085BD85B5816085BD809154
:100F90006E00816080936E001092810080918100CC
:100FA00082608093810080918100816080938100C4
:100FB000809180008160809380008091B100846086
:100FC0008093B1008091B00081608093B0008091E7
:100FD0007A00846080937A0080917A0082608093A6
:100FE0007A0080917A00816080937A0080917A0003
:100FF000806880937A001092C1001092EF011092E5
:10100000EE011092ED011092EC010E9482028CE23E
:1010100092E09093EB018093EA018DE292E090934D
:10102000E9018093E8011092230280912702823027
:1010300018F098E09093230290912802992339F0B8
:10104000813029F48091230284608093230262E33B
:1010500070E080E090E00E94F901609129028EE149
:1010600092E00E949F0368EE73E080E090E00E94AF
:10107000F90160E38EE192E00E948604CBE4D6E4BD
:10108000CE010197F1F760E38EE192E00E948604C1
:101090002197F1F760E38EE192E00E94860483E5F8
:1010A00092E00197F1F760E28EE192E00E948604FF
:1010B00060912302606240E08EE192E00E949A0417
:1010C00084E08093240240E06CE08EE192E00E9494
:1010D0009A0440E061E08EE192E00E949A04CBE342
:1010E000DFE1CE010197F1F782E08093250240E035
:1010F00066E08EE192E00E949A0440E062E08EE1B8
:1011000092E00E949A04CE010197F1F740E061E07D
:101110008EE192E00E949A042197F1F760E080E06E
:101120000E94B10488E690E00E94EA0480E090E02A
:10113000A0E3B1E48093300290933102A093320295
:10114000B0933302E8988BE292E090930101809390
:101150000001E998909303018093020181E080935C
:1011600000020E946205109202021092010200E049
:1011700010E0CBE2D2E08091010290910202009750
:1011800049F0019709F49EC101151105A1F30E94D0
:101190000000F1CFF0903A02E0903B02FF2019F0FE
:1011A00081E0FE2CF82610923A0210923B0260E099
:1011B0008FE00E94B1048091F801811122C02FB705
:1011C000F8948091040290910502A0910602B091DA
:1011D00007022FBF8093F0019093F101A093F201D9
:1011E000B093F30184EF91E0A0E0B0E08093F401CC
:1011F0009093F501A093F601B093F70181E08093FD
:10120000F8012FB7F11003C0EE2009F490C0F89454
:101210008091040290910502A0910602B09107020C
:101220002FBF8093F0019093F101A093F201B0934E
:10123000F3018EE3F110B3C08CE3E110B0C08091F4
:101240000C0290910D02A0910E02B0910F024091FC
:101250002A0250912B0260912C0270912D024817A6
:1012600059076A077B0709F48FCF0E94CA00809153
:101270000C0290910D02A0910E02B0910F0280938A
:101280002A0290932B02A0932C02B0932D0260E0CF
:1012900080E00E94B10486E890E00E94EA0461E0E8
:1012A00080E00E94B10460910C0270910D02809167
:1012B0000E0290910F020E94C40B6B017C016091A1
:1012C0002E0270912F0290E080E00E94C20B9B01E1
:1012D000AC01C701B6010E94210B6B017C012BED13
:1012E0003FE049E450E46091300270913102809116
:1012F0003202909133020E94790C9B01AC01C7012C
:10130000B6010E94790C6B017C014B015C01AC01C0
:101310009B010E94E60C882309F444C08AE291E014
:101320000E94110585E790E00E94EA042DCFF89411
:101330008091040290910502A0910602B0910702EB
:101340002FBF4091F0015091F1016091F201709135
:10135000F301841B950BA60BB70B4091F401509140
:10136000F5016091F6017091F70184179507A607C2
:10137000B70708F464CF2FB7F894809104029091D6
:101380000502A0910602B09107022FBF8093F001E1
:101390009093F101A093F201B093F30180E20E94D7
:1013A00004054DCF26013701E89477F82FEF3FEF82
:1013B0004FE75FE7C301B2010E94E60C81110DC047
:1013C0002FEF3FEF4FE75FE7C301B2010E941C0B15
:1013D00018161CF48EE291E0A3CF2FEF3FEF4FE7FA
:1013E0005FE4C701B6010E94740C18161CF482E376
:1013F00091E096CF2FEF3FEF4FE75FECC701B601CB
:101400000E941C0B87FDF3CF20E030E0A901C7014B
:10141000B6010E941C0B87FF09C08DE20E940405E3
:1014200046015701B7FAB094B7F8B0942AE037ED07
:1014300043EA5BE3C501B4010E94B00A4B015C01C1
:101440000E94930B6B017C010E94C20B9B01AC01BB
:10145000C501B4010E94AF0A4B015C014AE0C7011B
:10146000B6010E941E058EE20E94040520E030E0D5
:1014700040E251E4C501B4010E94790C4B015C01CA
:101480000E94930B6B01F12CE12C4AE0C701B601DD
:101490000E941E05C701B6010E94C20B9B01AC0150
:1014A000C501B4010E94AF0A20E030E040E251E4FF
:1014B0000E94790C0E94930B90E080E04AE00E9429
:1014C0001E0530CFF0903A02E0903B02FF2019F069
:1014D00081E0FE2CF82610923A0210923B02809195
:1014E0000C0290910D02A0910E02B0910F0240915A
:1014F0002A0250912B0260912C0270912D02481704
:1015000059076A077B0709F43FCE0E94CA00809101
:101510000C0290910D02A0910E02B0910F028093E7
:101520002A0290932B02A0932C02B0932D02F1106B
:1015300003C0EE2009F428CE8091000291E08927B3
:10154000E898D0930101C0930001E998D09303017A
:10155000C0930201809300020E94620515CE50588C
:10156000BB27AA270E94C70A0C943A0C0E942C0C95
:1015700038F00E94330C20F039F49F3F19F426F420
:101580000C94290C0EF4E095E7FB0C94230CE92F46
:101590000E944B0C58F3BA1762077307840795072C
:1015A00020F079F4A6F50C946D0C0EF4E0950B2E5A
:1015B000BA2FA02D0B01B90190010C01CA01A001A5
:1015C0001124FF27591B99F0593F50F4503E68F100
:1015D0001A16F040A22F232F342F4427585FF3CF41
:1015E000469537952795A795F0405395C9F77EF412
:1015F0001F16BA0B620B730B840BBAF09150A1F05B
:10160000FF0FBB1F661F771F881FC2F70EC0BA0FE0
:10161000621F731F841F48F4879577956795B79568
:10162000F7959E3F08F0B0CF9395880F08F0992763
:10163000EE0F9795879508950E94FF0B08F481E0BF
:1016400008950E94350B0C943A0C0E94330C58F00C
:101650000E942C0C40F029F45F3F29F00C94230CDD
:1016600051110C946E0C0C94290C0E944B0C68F3D5
:101670009923B1F3552391F3951B550BBB27AA274B
:1016800062177307840738F09F5F5F4F220F331F85
:10169000441FAA1FA9F335D00E2E3AF0E0E832D04D
:1016A00091505040E695001CCAF72BD0FE2F29D050
:1016B000660F771F881FBB1F261737074807AB0722
:1016C000B0E809F0BB0B802DBF01FF2793585F4F97
:1016D0003AF09E3F510578F00C94230C0C946E0C5C
:1016E0005F3FE4F3983ED4F3869577956795B79579
:1016F000F7959F5FC9F7880F911D9695879597F984
:101700000895E1E0660F771F881FBB1F62177307FC
:101710008407BA0720F0621B730B840BBA0BEE1F11
:1017200088F7E09508950E94530C88F09F5798F031
:10173000B92F9927B751B0F0E1F0660F771F881FD6
:10174000991F1AF0BA95C9F714C0B13091F00E94F0
:101750006D0CB1E008950C946D0C672F782F8827DD
:10176000B85F39F0B93FCCF3869577956795B39517
:10177000D9F73EF490958095709561957F4F8F4F86
:101780009F4F0895E89409C097FB3EF4909580958B
:10179000709561957F4F8F4F9F4F9923A9F0F92F37
:1017A00096E9BB279395F695879577956795B795B5
:1017B000F111F8CFFAF4BB0F11F460FF1BC06F5F9B
:1017C0007F4F8F4F9F4F16C0882311F096E911C0AD
:1017D000772321F09EE8872F762F05C0662371F0CE
:1017E00096E8862F70E060E02AF09A95660F771FE2
:1017F000881FDAF7880F9695879597F90895990FBE
:101800000008550FAA0BE0E8FEEF16161706E807CA
:10181000F907C0F012161306E407F50798F0621BEB
:10182000730B840B950B39F40A2661F0232B242BC0
:10183000252B21F408950A2609F4A140A6958FEFDF
:10184000811D811D089597F99F6780E870E060E031
:1018500008959FEF80EC089500240A941616170649
:1018600018060906089500240A9412161306140691
:1018700005060895092E0394000C11F4882352F0F4
:10188000BB0F40F4BF2B11F460FF04C06F5F7F4FAC
:101890008F4F9F4F089557FD9058440F551F59F093
:1018A0005F3F71F04795880F97FB991F61F09F3F4D
:1018B00079F087950895121613061406551FF2CF76
:1018C0004695F1DF08C0161617061806991FF1CFC6
:1018D00086957105610508940895E894BB276627ED
:1018E0007727CB0197F908950E94FF0B08F48FEF3B
:1018F00008950E948C0C0C943A0C0E942C0C38F029
:101900000E94330C20F0952311F00C94230C0C94BE
:10191000290C11240C946E0C0E944B0C70F3959FB3
:10192000C1F3950F50E0551F629FF001729FBB27D6
:10193000F00DB11D639FAA27F00DB11DAA1F649F72
:101940006627B00DA11D661F829F2227B00DA11D25
:10195000621F739FB00DA11D621F839FA00D611DAB
:10196000221F749F3327A00D611D231F849F600DCC
:10197000211D822F762F6A2F11249F5750409AF0F5
:10198000F1F088234AF0EE0FFF1FBB1F661F771F81
:10199000881F91505040A9F79E3F510580F00C944C
:1019A000230C0C946E0C5F3FE4F3983ED4F38695C1
:1019B00077956795B795F795E7959F5FC1F7FE2BEC
:1019C000880F911D9695879597F908950E94FF0BB2
:1019D000880B990B0895A1E21A2EAA1BBB1BFD01CF
:1019E0000DC0AA1FBB1FEE1FFF1FA217B307E407FE
:1019F000F50720F0A21BB30BE40BF50B661F771F56
:101A0000881F991F1A9469F7609570958095909535
:101A10009B01AC01BD01CF010895EE0FFF1F0590A2
:101A2000F491E02D0994F894FFCF2B022B020000D3
:101A3000400014005400000000001803EB020E05E3
:101A4000C102E402D102C20200000000E4042E023E
:101A50000E050D056E616E00696E66006F7666009C
:107E0000112484B714BE81FFF0D085E080938100F7
:107E100082E08093C00088E18093C10086E0809377
:107E2000C20080E18093C4008EE0C9D0259A86E02C
:107E300020E33CEF91E0309385002093840096BBD3
:107E4000B09BFECF1D9AA8958150A9F7CC24DD24C4
:107E500088248394B5E0AB2EA1E19A2EF3E0BF2EE7
:107E6000A2D0813461F49FD0082FAFD0023811F036
:107E7000013811F484E001C083E08DD089C08234E0
:107E800011F484E103C0853419F485E0A6D080C0E4
:107E9000853579F488D0E82EFF2485D0082F10E0AE
:107EA000102F00270E291F29000F111F8ED06801E7
:107EB0006FC0863521F484E090D080E0DECF843638
:107EC00009F040C070D06FD0082F6DD080E0C81688
:107ED00080E7D80618F4F601B7BEE895C0E0D1E017
:107EE00062D089930C17E1F7F0E0CF16F0E7DF06D8
:107EF00018F0F601B7BEE89568D007B600FCFDCFD4
:107F0000A601A0E0B1E02C9130E011968C91119780
:107F100090E0982F8827822B932B1296FA010C0160
:107F200087BEE89511244E5F5F4FF1E0A038BF0790
:107F300051F7F601A7BEE89507B600FCFDCF97BE46
:107F4000E89526C08437B1F42ED02DD0F82E2BD052
:107F50003CD0F601EF2C8F010F5F1F4F84911BD097
:107F6000EA94F801C1F70894C11CD11CFA94CF0C13
:107F7000D11C0EC0853739F428D08EE10CD085E9AC
:107F80000AD08FE07ACF813511F488E018D01DD067
:107F900080E101D065CF982F8091C00085FFFCCF94
:107FA0009093C60008958091C00087FFFCCF809118
:107FB000C00084FD01C0A8958091C6000895E0E648
:107FC000F0E098E1908380830895EDDF803219F02E
:107FD00088E0F5DFFFCF84E1DECF1F93182FE3DFCA
:107FE0001150E9F7F2DF1F91089580E0E8DFEE27F6
:047FF000FF270994CA
:027FFE00040479
:00000001FF
