:100000000C9478000C9499050C9472050C94A00043
:100010000C94A0000C94A0000C94A0000C94A000E0
:100020000C94A0000C94A0000C94A0000C94A000D0
:100030000C94A0000C94A0000C94A0000C94A000C0
:100040000C9428050C94A0000C94A0000C94A00023
:100050000C94A0000C94A0000C94A0000C94A000A0
:100060000C94C0050C94A000526F746172792052F8
:10007000756C657200206D6D2020202020202020CE
:10008000202020202000526F746172792052756CFC
:100090006572000000000023002600290000000017
:1000A0000800020100000304070000000000000037
:1000B0000000000000250028002B000000000024A4
:1000C0000027002A000404040404040404020202B9
:1000D0000202020303030303030102040810204089
:1000E0008001020408102001020408102000DF062D
:1000F00011241FBECFEFD8E0DEBFCDBF11E0A0E0DE
:10010000B1E0EAEEF9E102C005900D92A633B10725
:10011000D9F722E0A6E3B1E001C01D92AF33B207E8
:10012000E1F710E0C8E7D0E004C02197FE010E948B
:10013000ED0CC737D107C9F70E9430070C94F30CB8
:100140000C940000CF93DF9390E0FC01E752FF4F47
:1001500024918B539F4FFC0184918823C1F090E040
:10016000880F991FFC01E554FF4FC591D491FC0104
:10017000EF54FF4FA591B4919FB7F8948881E22F77
:10018000E0958E2388838C91E823EC939FBFDF91C9
:10019000CF910895833081F028F4813099F0823036
:1001A000A9F008958730A9F08830C9F08430B1F4FF
:1001B000809180008F7D03C0809180008F77809335
:1001C0008000089584B58F7784BD089584B58F7DB0
:1001D000FBCF8091B0008F778093B000089580911D
:1001E000B0008F7DF9CFCF93DF93282F30E0F90156
:1001F000E356FF4F8491F901E752FF4FD491F90183
:10020000EB53FF4FC491CC23A1F081110E94CA008F
:10021000EC2FF0E0EE0FFF1FED56FF4FA591B491CC
:10022000EC91ED2381E090E009F480E0DF91CF9143
:10023000089580E090E0FACF1F93CF93DF93282FAB
:1002400030E0F901E356FF4F8491F901E752FF4F87
:10025000D491F901EB53FF4FC491CC23A9F0162F91
:1002600081110E94CA00EC2FF0E0EE0FFF1FEF5447
:10027000FF4FA591B4918FB7F894EC91111108C07C
:10028000D095DE23DC938FBFDF91CF911F9108952E
:10029000DE2BF8CF3FB7F89480910F0290911002B7
:1002A000A0911102B091120226B5A89B05C02F3F64
:1002B00019F00196A11DB11D3FBFBA2FA92F982F8C
:1002C0008827BC01CD01620F711D811D911D42E087
:1002D000660F771F881F991F4A95D1F708958F924F
:1002E0009F92AF92BF92CF92DF92EF92FF924B011B
:1002F0005C010E944A016B017C010E944A016C1959
:100300007D098E099F09683E734081059105A8F318
:1003100021E0821A9108A108B10888EEC80E83E096
:10032000D81EE11CF11C81149104A104B10429F729
:10033000FF90EF90DF90CF90BF90AF909F908F9005
:100340000895089508950895AF92BF92CF92DF92D5
:10035000EF92FF920F931F93CF93DF936C017B017A
:100360008B01040F151FEB015E01AE18BF08C0170B
:10037000D10759F06991D601ED91FC910190F0817E
:10038000E02DC6010995892B79F7C501DF91CF9141
:100390001F910F91FF90EF90DF90CF90BF90AF90A3
:1003A000089520919E01260F3327331F21323105F6
:1003B000ECF42091C201FC0190E080E0243069F06F
:1003C00082E00895A0919E012191AC0142585E4FB8
:1003D000A40FB52FB11D2C930196861798F3809129
:1003E0009E01680F60939E0180E0089581E008956A
:1003F0001092C20181E08093C4011092C30161E0B8
:1004000082E10E941C0161E083E10E941C01E9EB92
:10041000F0E080818E7F808380818D7F808388E47F
:100420008093B80085E48093BC000895CF93DF9358
:1004300091E090937D018823B9F0C091B800D091EC
:10044000BA008091BC008A7B8093BC0060E082E1AE
:100450000E941C0160E083E10E941C010E94F801DF
:10046000D093BA00C093B800DF91CF91089508955A
:10047000E091EF018091EE01E81730F4F0E0E85AE6
:10048000FE4F808190E008958FEF9FEF0895909147
:10049000EF018091EE012FEF3FEF981748F4E92F1D
:1004A000F0E0E85AFE4F208130E09F5F9093EF012B
:1004B000C90108958091EE019091EF01891B990B7C
:1004C0000895CF92DF92EF92FF920F931F93CF93F5
:1004D000DF937C01CB018A0120915701222389F00F
:1004E000EB016B01C40ED51ECC15DD0569F06991D9
:1004F000D701ED91FC910190F081E02DC7010995A4
:10050000F3CF642F0E94D101C801DF91CF911F91D9
:100510000F91FF90EF90DF90CF900895CF93DF93EE
:100520001F92CDB7DEB76983209157012223F9F0DE
:100530002091EC01203258F021E030E0FC013383BF
:10054000228390E080E00F90DF91CF910895809119
:10055000ED01E82FF0E0E95CFE4F998190838F5F19
:100560008093ED018093EC0181E090E0ECCF61E0BD
:10057000CE0101960E94D101F7CF809120020E9406
:10058000F30020910402892B71F48091F001909185
:10059000F101A091F201B091F301222371F00196D3
:1005A000A11DB11D0DC08091F0019091F101A091AC
:1005B000F201B091F301222391F30197A109B1094E
:1005C0008093F0019093F101A093F201B093F301B5
:1005D000089580911F020E94F30020910402892B4C
:1005E00071F48091F0019091F101A091F201B0912C
:1005F000F301222371F00197A109B1090DC0809187
:10060000F0019091F101A091F201B091F301222348
:1006100091F30196A11DB11D8093F0019093F1011A
:10062000A093F201B093F3010895CF92DF92EF927D
:10063000FF920F931F93CF93DF93FC01C48121E0BE
:1006400020935701C09336011092ED011092EC01F6
:100650008385682B83E192E00E948E02D091EC01A9
:10066000D13208F092C00E944A016B017C01809156
:10067000C201811165C082E08093C20181E0809354
:10068000C4018FEF8093C1011092E601D093E50180
:10069000A7E3B1E0E5ECF1E080E0D81385C010926B
:1006A000E7018091E701CC0FC82BC093E70180914F
:1006B000C301813009F07CC01092C3010E944A013D
:1006C0006B017C018091E7018093BB0080917901EF
:1006D00090917A01A0917B01B0917C01892B8A2BAA
:1006E0008B2B99F00E944A010091790110917A01B7
:1006F00020917B0130917C016C197D098E099F0945
:100700000617170728073907E0F18091BC0083FD21
:10071000D9CF85EC8093BC000E944A016B017C011B
:100720008091C201823009F445C08091C1018F3FA0
:1007300061F18091C101803241F18091C10125C0F8
:100740008091790190917A01A0917B01B0917C0117
:10075000892B8A2B8B2B09F48ACF0E944A010091A6
:10076000790110917A0120917B0130917C016C1903
:100770007D098E099F09061717072807390708F012
:1007800076CF809178010E9416021092ED011092AE
:10079000EC0110925701DF91CF911F910F91FF90C3
:1007A000EF90DF90CF9008959D9191938F5F75CFDB
:1007B00085EEB0CF8091790190917A01A0917B0173
:1007C000B0917C01892B8A2B8B2B09F4A9CF0E9435
:1007D0004A010091790110917A0120917B013091B9
:1007E0007C016C197D098E099F09061717072807D8
:1007F000390708F095CFC5CF0F931F93CF938C0186
:10080000C62F0E9415036C2F6460C8010E94150357
:100810006C2F6B7FC801CF911F910F910C94150322
:100820000F931F93CF93DF938C01D62FC42F607F3C
:10083000642B0E94FC0380E1D89FB00111246C2B33
:10084000C801DF91CF911F910F910C94FC03CF93BE
:10085000DF93CDB7DEB728970FB6F894DEBF0FBE93
:10086000CDBF98E0E4E0F1E0DE01119601900D9239
:100870009A95E1F790912A02961708F46FEF262FC8
:1008800030E0220F331F41E050E04C0F5D1F240F7A
:10089000351FF9016081680F606840E081E292E0F5
:1008A00028960FB6F894DEBF0FBECDBFDF91CF9173
:1008B0000C94100441E00E94100481E090E008953F
:1008C0000F931F93CF93DF938C01D0E0C0E0F8012A
:1008D000EC0FFD1F6491662339F041E081E292E064
:1008E0000E9410042196F3CFCE01DF91CF911F918A
:1008F0000F91089541E0682F81E292E00E94100478
:1009000081E090E00895089590E080E00895FC0172
:1009100001900020E9F73197AF01481B590BBC014A
:1009200081E292E00C94A4018F929F92AF92BF92C9
:100930000F931F93CF93DF93CDB7DEB7A1970FB679
:10094000F894DEBF0FBECDBF19A2423008F44AE0D2
:100950008E010F5D1F4F842E912CB12CA12CA5016F
:1009600094010E94CB0CE62FB901CA01EA30F4F4DD
:10097000E05DD801EE938D01232B242B252B79F7F5
:1009800090E080E0109719F0CD010E948704A196B5
:100990000FB6F894DEBF0FBECDBFDF91CF911F9190
:1009A0000F91BF90AF909F908F900895E95CE1CF39
:1009B000A0E0B1E089EE92E011969C938E93E9E677
:1009C000F0E0808183608083E89A8DEB92E013965B
:1009D0009C938E93129780818C608083E99A08950E
:1009E00085ED8093BC008091790190917A01A0916E
:1009F0007B01B0917C010796A11DB11D23E0B69546
:100A0000A795979587952A95D1F72091BC0024FD4D
:100A100003C01092C20108954091790150917A016A
:100A200060917B0170917C01452B462B472B69F32C
:100A30000097A105B10541F02AE22A95F1F700C01F
:100A40000197A109B109E1CF809178010C941602B8
:100A50001F920F920FB60F9211242F933F938F93F3
:100A60009F93AF93BF9380910B0290910C02A09142
:100A70000D02B0910E0230910A0223E0230F2D37B0
:100A800058F50196A11DB11D20930A0280930B0217
:100A900090930C02A0930D02B0930E0280910F026E
:100AA00090911002A0911102B09112020196A11D25
:100AB000B11D80930F0290931002A0931102B09386
:100AC0001202BF91AF919F918F913F912F910F9003
:100AD0000FBE0F901F90189526E8230F0296A11DB8
:100AE000B11DD2CF1F920F920FB60F9211242F93E8
:100AF0003F934F935F936F937F938F939F93AF93A6
:100B0000BF93EF93FF93E0910201F09103010995E8
:100B1000FF91EF91BF91AF919F918F917F916F91D5
:100B20005F914F913F912F910F900FBE0F901F90AB
:100B300018951F920F920FB60F9211242F933F9387
:100B40004F935F936F937F938F939F93AF93BF93D5
:100B5000EF93FF93E0910001F09101010995FF915E
:100B6000EF91BF91AF919F918F917F916F915F9125
:100B70004F913F912F910F900FBE0F901F9018959E
:100B80001F920F920FB60F9211242F933F934F9302
:100B90005F936F937F938F939F93AF93BF93EF93E5
:100BA000FF938091B900887F803609F44AC0F0F540
:100BB000883209F4A7C018F5803109F49BC0B8F455
:100BC000882309F4F9C0883009F494C0FF91EF91AB
:100BD000BF91AF919F918F917F916F915F914F9155
:100BE0003F912F910F900FBE0F901F901895883155
:100BF00009F488C0803251F78093C10114C0803459
:100C000009F49DC040F48033B9F38833F9F680933A
:100C1000C10185ECB0C0803509F485C0883509F480
:100C200096C0883499F60E94F004D0CF883909F430
:100C30008CC038F5883729F050F4883611F08037A9
:100C400029F683E08093C2011092C00157C0883812
:100C500009F47BC0803919F0803809F0B7CF809152
:100C6000C001803208F071C0E091C00181E08E0FB8
:100C70008093C0018091BB00F0E0E056FE4F80837E
:100C80003DC0803B39F0E0F4803A09F479C0883AFD
:100C900009F09CCF84E08093C20110929F011092D2
:100CA0009E01E091EA01F091EB01099580919E018E
:100CB00081110FC081E080939E0110927E0109C0D6
:100CC000803C09F4A6CF883C09F4A3CF883B09F007
:100CD0007DCFE0919F0181E08E0F80939F01F0E036
:100CE000E258FE4F80818093BB0090919F018091DC
:100CF0009E0129C08091E7018093BB0085EC809321
:100D0000BC0064CF9091E6018091E501981758F5F9
:100D1000E091E60181E08E0F8093E601F0E0EB5375
:100D2000FE4F8081E9CFE091E60181E08E0F809354
:100D3000E6018091BB00F0E0EB53FE4F8083909181
:100D4000E6018091E5019817C8F285E8D8CFE091D7
:100D5000E60181E08E0F8093E6018091BB00F0E018
:100D6000EB53FE4F80838091C40181115CCF81E001
:100D70008093C30184EA8093BC001092C20126CF05
:100D800085EC8093BC001092C2018091C00180323A
:100D900030F4E091C001F0E0E056FE4F1082609127
:100DA000C00170E0E091E801F091E90180EA91E092
:100DB00009951092C0010ACF1092C10134CFCF9390
:100DC000E3E1F2E01382128288EE93E0A0E0B0E06B
:100DD00084839583A683B78380E191E091838083A8
:100DE000EDE2F2E0108211821282138280E098E03C
:100DF00095838483168217821086118680E890E09E
:100E0000938782871486158616861786108A118A1C
:100E1000C2E0C093200283E080931F0282E00E9420
:100E2000A20083E00E94A20061E082E00E941C0117
:100E300061E083E00E941C010E94D804E1E2F2E03C
:100E40001382128282E291E0918380838FE3848314
:100E500080E18087C187128688E08387CF910895DB
:100E6000789484B5826084BD84B5816084BD85B585
:100E7000826085BD85B5816085BD80916E00816091
:100E800080936E0010928100809181008260809337
:100E90008100809181008160809381008091800039
:100EA0008160809380008091B10084608093B10064
:100EB0008091B00081608093B00080917A0084605E
:100EC00080937A0080917A00826080937A0080918A
:100ED0007A00816080937A0080917A0080688093A4
:100EE0007A001092C1001092EF011092EE01109260
:100EF000ED011092EC010E94F80182EA91E09093DA
:100F0000EB018093EA0183EA91E09093E9018093F9
:100F1000E8011092260280912A02823018F098E0AF
:100F20009093260290912B02992339F0813029F475
:100F30008091260284608093260262E370E080E064
:100F400090E00E946F0160912C0281E292E00E9489
:100F5000150368EE73E080E090E00E946F0160E3AB
:100F600081E292E00E94FC03CBE4D6E4CE0101973B
:100F7000F1F760E381E292E00E94FC032197F1F730
:100F800060E381E292E00E94FC0383E592E0019736
:100F9000F1F760E281E292E00E94FC036091260298
:100FA000606240E081E292E00E94100484E080935D
:100FB000270240E06CE081E292E00E94100440E0F1
:100FC00061E081E292E00E941004CBE3DFE1CE0118
:100FD0000197F1F782E08093280240E066E081E229
:100FE00092E00E94100440E062E081E292E00E9400
:100FF0001004CE010197F1F740E061E081E292E058
:101000000E9410042197F1F760E080E00E9427041D
:1010100088E690E00E94600480E090E0A0E3B1E404
:101020008093330290933402A0933502B09336023A
:10103000E89881EA91E09093010180930001E9989A
:10104000909303018093020181E0809304020E9447
:10105000D804109209021092080201E080E0282EC4
:1010600080E0382E11E0C1EAD1E040912D0250918C
:101070002E0260912F02709130028091F0019091C8
:10108000F101A091F201B091F301481759076A07E5
:101090007B0709F4B8C0C0903902D0903A02E090C2
:1010A0003B02F0903C028091F0019091F101A091FF
:1010B000F201B091F30146015701881A990AAA0A70
:1010C000BB0AD501C401181619061A061B060CF036
:1010D0007AC08091F0019091F101A091F201B0915C
:1010E000F30146015701881A990AAA0ABB0AD501D9
:1010F000C401C0903702D09038020D2C000CEE08CD
:10110000FF088C159D05AE05BF0514F18091F00117
:101110009091F101A091F201B091F30148175907A4
:101120006A077B070CF05CC010933D0210923E02F0
:101130008091F0019091F101A091F201B091F30141
:101140008093390290933A02A0933B02B0933C0201
:101150008091F0019091F101A091F201B091F30121
:1011600080932D0290932E02A0932F02B093300211
:1011700081E08093050280913D0290913E02882398
:1011800011F0892F802710923D0280930602109261
:101190003E02909307022091080230910902211526
:1011A000310599F12130310509F4A2C110920502EF
:1011B00010920602109207022114310409F455CF4F
:1011C0000E94000052CF8091F0019091F101A09116
:1011D000F201B091F3018C199D09AE09BF0989CFC5
:1011E0008091F0019091F101A091F201B091F30191
:1011F00084179507A607B7070CF09ACF10923D0207
:1012000010933E0295CF80E0B4CF60E08FE00E9463
:1012100027048091FC01811121C02FB7F89480919F
:101220000B0290910C02A0910D02B0910E022FBF03
:101230008093F4019093F501A093F601B093F70128
:1012400084EF91E0A0E0B0E08093F8019093F90181
:10125000A093FA01B093FB011093FC018091060268
:10126000811105C080910702882309F477C02FB748
:10127000F89480910B0290910C02A0910D02B09114
:101280000E022FBF8093F4019093F501A093F60115
:10129000B093F70180910602882309F458C08EE3C9
:1012A0000E947A0480910502882309F47FCF60E0D0
:1012B00080E00E94270486E890E00E94600461E0DC
:1012C00080E00E9427046091F0017091F10180910B
:1012D000F2019091F3010E94A40B6B017C016091DB
:1012E00031027091320290E080E00E94A20B9B01DB
:1012F000AC01C701B6010E94010B6B017C012BED13
:101300003FE049E450E460913302709134028091EF
:101310003502909136020E94590C9B01AC01C70125
:10132000B6010E94590C6B017C014B015C01AC01C0
:101330009B010E94C60C882309F44AC08AE291E00E
:101340000E94870485E790E00E9460042FCF80917F
:101350000702882309F4A6CF8CE3A2CF2FB7F89415
:1013600080910B0290910C02A0910D02B0910E029F
:101370002FBF4091F4015091F5016091F6017091F9
:10138000F701841B950BA60BB70B4091F801509108
:10139000F9016091FA017091FB0184179507A60786
:1013A000B70708F47FCF2FB7F89480910B02909184
:1013B0000C02A0910D02B0910E022FBF8093F40198
:1013C0009093F501A093F601B093F70180E268CF06
:1013D00026013701E89477F82FEF3FEF4FE75FE7FB
:1013E000C301B2010E94C60C81110DC02FEF3FEF67
:1013F0004FE75FE7C301B2010E94FC0A18161CF414
:101400008EE291E09DCF2FEF3FEF4FE75FE4C70102
:10141000B6010E94540C18161CF482E391E090CFA0
:101420002FEF3FEF4FE75FECC701B6010E94FC0AC8
:1014300087FDF3CF20E030E0A901C701B6010E948B
:10144000FC0A87FF09C08DE20E947A044601570119
:10145000B7FAB094B7F8B0942AE037ED43EA5BE30B
:10146000C501B4010E94900A4B015C010E94730BFC
:101470006B017C010E94A20B9B01AC01C501B40170
:101480000E948F0A4B015C014AE0C701B6010E942D
:1014900094048EE20E947A0420E030E040E251E4BD
:1014A000C501B4010E94590C4B015C010E94730BF1
:1014B0006B01F12CE12C4AE0C701B6010E949404B3
:1014C000C701B6010E94A20B9B01AC01C501B4018A
:1014D0000E948F0A20E030E040E251E40E94590C63
:1014E0000E94730B90E080E04AE00E9494042ACFAF
:1014F000811103C0992309F459CE809104028027F9
:10150000E898D0930101C0930001E998D0930301BA
:10151000C0930201809304020E94D80447CE505821
:10152000BB27AA270E94A70A0C941A0C0E940C0C35
:1015300038F00E94130C20F039F49F3F19F426F480
:101540000C94090C0EF4E095E7FB0C94030CE92FC6
:101550000E942B0C58F3BA1762077307840795078C
:1015600020F079F4A6F50C944D0C0EF4E0950B2EBA
:10157000BA2FA02D0B01B90190010C01CA01A001E5
:101580001124FF27591B99F0593F50F4503E68F140
:101590001A16F040A22F232F342F4427585FF3CF81
:1015A000469537952795A795F0405395C9F77EF452
:1015B0001F16BA0B620B730B840BBAF09150A1F09B
:1015C000FF0FBB1F661F771F881FC2F70EC0BA0F21
:1015D000621F731F841F48F4879577956795B795A9
:1015E000F7959E3F08F0B0CF9395880F08F09927A4
:1015F000EE0F9795879508950E94DF0B08F481E020
:1016000008950E94150B0C941A0C0E94130C58F0AC
:101610000E940C0C40F029F45F3F29F00C94030C5D
:1016200051110C944E0C0C94090C0E942B0C68F375
:101630009923B1F3552391F3951B550BBB27AA278B
:1016400062177307840738F09F5F5F4F220F331FC5
:10165000441FAA1FA9F335D00E2E3AF0E0E832D08D
:1016600091505040E695001CCAF72BD0FE2F29D090
:10167000660F771F881FBB1F261737074807AB0762
:10168000B0E809F0BB0B802DBF01FF2793585F4FD7
:101690003AF09E3F510578F00C94030C0C944E0CDC
:1016A0005F3FE4F3983ED4F3869577956795B795B9
:1016B000F7959F5FC9F7880F911D9695879597F9C4
:1016C0000895E1E0660F771F881FBB1F621773073D
:1016D0008407BA0720F0621B730B840BBA0BEE1F52
:1016E00088F7E09508950E94330C88F09F5798F092
:1016F000B92F9927B751B0F0E1F0660F771F881F17
:10170000991F1AF0BA95C9F714C0B13091F00E9430
:101710004D0CB1E008950C944D0C672F782F88275D
:10172000B85F39F0B93FCCF3869577956795B39557
:10173000D9F73EF490958095709561957F4F8F4FC6
:101740009F4F0895E89409C097FB3EF490958095CB
:10175000709561957F4F8F4F9F4F9923A9F0F92F77
:1017600096E9BB279395F695879577956795B795F5
:10177000F111F8CFFAF4BB0F11F460FF1BC06F5FDB
:101780007F4F8F4F9F4F16C0882311F096E911C0ED
:10179000772321F09EE8872F762F05C0662371F00E
:1017A00096E8862F70E060E02AF09A95660F771F22
:1017B000881FDAF7880F9695879597F90895990FFE
:1017C0000008550FAA0BE0E8FEEF16161706E8070B
:1017D000F907C0F012161306E407F50798F0621B2C
:1017E000730B840B950B39F40A2661F0232B242B01
:1017F000252B21F408950A2609F4A140A6958FEF20
:10180000811D811D089597F99F6780E870E060E071
:1018100008959FEF80EC089500240A941616170689
:1018200018060906089500240A94121613061406D1
:1018300005060895092E0394000C11F4882352F034
:10184000BB0F40F4BF2B11F460FF04C06F5F7F4FEC
:101850008F4F9F4F089557FD9058440F551F59F0D3
:101860005F3F71F04795880F97FB991F61F09F3F8D
:1018700079F087950895121613061406551FF2CFB6
:101880004695F1DF08C0161617061806991FF1CF06
:1018900086957105610508940895E894BB2766272D
:1018A0007727CB0197F908950E94DF0B08F48FEF9B
:1018B00008950E946C0C0C941A0C0E940C0C38F0C9
:1018C0000E94130C20F0952311F00C94030C0C943F
:1018D000090C11240C944E0C0E942B0C70F3959F54
:1018E000C1F3950F50E0551F629FF001729FBB2717
:1018F000F00DB11D639FAA27F00DB11DAA1F649FB3
:101900006627B00DA11D661F829F2227B00DA11D65
:10191000621F739FB00DA11D621F839FA00D611DEB
:10192000221F749F3327A00D611D231F849F600D0C
:10193000211D822F762F6A2F11249F5750409AF035
:10194000F1F088234AF0EE0FFF1FBB1F661F771FC1
:10195000881F91505040A9F79E3F510580F00C948C
:10196000030C0C944E0C5F3FE4F3983ED4F3869541
:1019700077956795B795F795E7959F5FC1F7FE2B2C
:10198000880F911D9695879597F908950E94DF0B12
:10199000880B990B0895A1E21A2EAA1BBB1BFD010F
:1019A0000DC0AA1FBB1FEE1FFF1FA217B307E4073E
:1019B000F50720F0A21BB30BE40BF50B661F771F96
:1019C000881F991F1A9469F7609570958095909576
:1019D0009B01AC01BD01CF010895EE0FFF1F0590E3
:0A19E000F491E02D0994F894FFCF74
:1019EA00A101A10100004000140054000000000001
:1019FA008E026102840437025A024702380200004A
:101A0A0000005A04A401840483046E616E00696EA6
:061A1A0066006F76660015
:00000001FF
